:100000000C9463000C948B000C948B000C948B006C
:100010000C948B000C948B000C948B000C948B0034
:100020000C948B000C948B000C948B000C948B0024
:100030000C948B000C948B000C948B000C948B0014
:100040000C94BC030C948B000C9492060C94C40684
:100050000C948B000C948B000C948B000C948B00F4
:100060000C948B000C948B0000000008000201002F
:100070000003040700000000000000000102040863
:100080001020408001020408102001020408102002
:10009000040404040404040402020202020203032E
:1000A00003030303000000002300260029000000D2
:1000B0000000250028002B0000000000240027007D
:1000C0002A00B801F40611241FBECFEFD8E0DEBF2E
:1000D000CDBF11E0A0E0B1E0E4EEF6E102C0059092
:1000E0000D92AE3BB107D9F722E0AEEBB1E001C013
:1000F0001D92AE3BB207E1F710E0C6ECD0E004C0C1
:100100002297FE010E946C0BC23CD107C9F70E94E6
:1001100038070C94700B0C9400008F929F92AF9252
:10012000BF92CF92DF92EF92FF9269E088EC91E06C
:100130000E9498028111C2C0C0900801D0900901AC
:10014000E0900A01F0900B01C701B60161507109FE
:10015000810991090E942B0A4B015C01C701B6017C
:100160000E942B0A6B017C012091DD013091DE01A0
:100170004091DF015091E001C501B4010E94E10A04
:100180002091CC013091CD014091CE015091CF0111
:100190000E942A09A70196010E9492096093DD013D
:1001A0007093DE018093DF019093E00126E636E64E
:1001B00046EE5FE30E94E10A20E030E040E052E4D6
:1001C0000E942A096093D9017093DA018093DB01C0
:1001D0009093DC012091D5013091D6014091D70157
:1001E0005091D801C501B4010E94E10A2091C801D3
:1001F0003091C9014091CA015091CB010E942A0956
:10020000A70196010E9492096093D5017093D601CF
:100210008093D7019093D80181EE91E00E94200352
:100220006EE071E080911202909113020E948507A6
:1002300066E171E080911202909113020E9485079D
:100240004091DD015091DE016091DF017091E0018C
:1002500022E030E080911202909113020E94260960
:1002600066E171E080911202909113020E9485076D
:100270004091D5015091D6016091D7017091D8017C
:1002800022E030E080911202909113020E94260930
:1002900068E171E080911202909113020E9485073B
:1002A00065E070E080E090E0FF90EF90DF90CF900D
:1002B000BF90AF909F908F900C943504FF90EF907B
:1002C000DF90CF90BF90AF909F908F90089540EDBA
:1002D00057E060E070E081EE91E00E94230320E0AF
:1002E00032EC41E050E061E272E081EE91E00E9488
:1002F000360381EE91E00E94200361E271E080917B
:100300001202909113020E9485076AE070E080E07B
:1003100090E00E94350441E060E081EE91E00E94AF
:10032000A10368EE73E080E090E00E94350461E094
:10033000809106010C94DE04CF93DF93C6E0D1E0F8
:1003400061E088810E94170560ED77E080E090E031
:100350000E94350460E088810E94170568EE73E012
:1003600080E090E00E943504DF91CF910C948D00E5
:1003700081E292E09093C7018093C60183E391E00C
:100380009093BF018093BE011092C0011092C101F1
:100390001092C2011092C3011092C40182E08093B6
:1003A000C50108954F925F926F927F928F929F92B4
:1003B000AF92BF92CF92DF92EF92FF920F931F9373
:1003C000CF93DF9300D0CDB7DEB77C01D62E70E09F
:1003D000FB01E458FF4FC490FB01E057FF4FE4914D
:1003E000F0E0EE0FFF1FEC55FF4F4590549061E099
:1003F0008D2D2A8349830E94DE0460E08D2D0E94AA
:10040000170588EE93E04981BC01469FC001479FD4
:10041000900D11240E946F0461E08D2D0E9417053C
:1004200060E08D2D0E94DE0480E293E02A81F201DB
:1004300030813C2121F00197D1F78DEF66C080E932
:1004400091E0F20130813C2121F40197D1F78CEF4A
:100450005CC080E991E0F20130813C2121F00197FC
:10046000D1F78BEF52C0F8E2BF2EA0E9B1E040E037
:1004700050E080E991E060E0912C812C10E8612E41
:100480007B2C721A00E911E020E030E0F201A0803C
:10049000AC2051F5662341F17B1490F4A817B907FD
:1004A00008F4CD01B901A801481B590B6109710974
:1004B000E2E07595679557954795EA95D1F707C09E
:1004C000BC01641B750B6A177B0708F096286694BD
:1004D00041F4F701E80DF11D90868394912C60E8BA
:1004E000662EBA94A0E9B1E0119771F0BB2011F02B
:1004F0006A2DCCCF61E08D2D0E94DE0461E08D2D50
:100500000E94170580E001C08EEF0F900F90DF91E1
:10051000CF911F910F91FF90EF90DF90CF90BF9000
:10052000AF909F908F907F906F905F904F900895C5
:10053000CF92DF92EF92FF920F931F93CF93DF93AF
:10054000EC0126E041E00E94D201E82E18851370EC
:100550001887CA840C2D03780A87F984612F70E00C
:10056000762F66276F0D711D882777FD8095982F50
:100570000E942D0A2DEC3CEC4CEC5DE30E94E10A5C
:10058000688379838A839B83DB846C2D637070E03E
:10059000762F66276D0D711D882777FD8095982F22
:1005A0000E942D0A2DEC3CEC4CEC5DE30E94E10A2C
:1005B00007FD05C06C837D838E839F8307C0DC01AC
:1005C000CB01B0588C839D83AE83BF83FD0CF10EAD
:1005D000F00E8C858F1511F08FEF01C08E2DDF91FD
:1005E000CF911F910F91FF90EF90DF90CF900895E2
:1005F0000F931F93CF93DF93EC01662359F00E9472
:10060000060469837A838B839C83DF91CF911F914A
:100610000F9108950E94060409811A812B813C8163
:10062000601B710B820B930B623371058105910581
:1006300030F763E070E080E090E00E943504EACF9C
:1006400060E00C94F802FC0113AA14AA15AA16AAD9
:1006500011821282138214824115510561057105C0
:1006600021F0CB01BA010C9435040895FB01BA01C5
:10067000A901DC01D296FC93EE93D19726E0CF013D
:100680000C9430061F93CF93DF93EC01162F68E490
:1006900071E089A99AA90E9485074AE050E0612F7C
:1006A00089A99AA90E9434086FE471E089A99AA9DE
:1006B0000E94850762E370E080E090E0DF91CF91D7
:1006C0001F910C9435041F93CF93DF93EC01162FE9
:1006D0008D81882389F189A99AA9DC01ED91FC918A
:1006E0000480F581E02D0995892BA9F307C02637F1
:1006F000310519F12835310509F41D8289A99AA916
:10070000DC01ED91FC910480F581E02D099518162E
:10071000190694F489A99AA9DC01ED91FC9106804F
:10072000F781E02D09959C01332723363105F9F631
:10073000612FCE010E94420383E6DF91CF911F918A
:1007400008950F931F93CF93DF931F92CDB7DEB71A
:100750008C01662349F081E0F801858360E0C801DF
:1007600049830E9463034981F80145830F90DF911B
:10077000CF911F910F9108951F920F920FB60F9274
:1007800011242F933F938F939F93AF93BF938091A7
:10079000190290911A02A0911B02B0911C02309193
:1007A000180223E0230F2D3720F40196A11DB11D5F
:1007B00005C026E8230F0296A11DB11D2093180243
:1007C0008093190290931A02A0931B02B0931C020B
:1007D00080911D0290911E02A0911F02B0912002F3
:1007E0000196A11DB11D80931D0290931E02A0933E
:1007F0001F02B0932002BF91AF919F918F913F91C3
:100800002F910F900FBE0F901F9018952FB7F8944F
:100810006091190270911A0280911B0290911C0242
:100820002FBF08953FB7F89480911D0290911E024A
:10083000A0911F02B091200226B5A89B05C02F3FB2
:1008400019F00196A11DB11D3FBF6627782F892F92
:100850009A2F620F711D811D911D42E0660F771F57
:10086000881F991F4A95D1F708958F929F92AF9252
:10087000BF92CF92DF92EF92FF926B017C010E94B8
:1008800012044B015C01C114D104E104F104F1F044
:100890000E9428090E941204681979098A099B0993
:1008A000683E73408105910570F321E0C21AD108BA
:1008B000E108F10888EE880E83E0981EA11CB11CA7
:1008C000C114D104E104F10429F7DDCFFF90EF90CA
:1008D000DF90CF90BF90AF909F908F90089582301F
:1008E000910538F0880F991F880F991F0597019778
:1008F000F1F70895789484B5826084BD84B58160F1
:1009000084BD85B5826085BD85B5816085BDEEE617
:10091000F0E0808181608083E1E8F0E010828081F6
:1009200082608083808181608083E0E8F0E0808164
:1009300081608083E1EBF0E0808184608083E0EB84
:10094000F0E0808181608083EAE7F0E0808184606C
:1009500080838081826080838081816080838081C8
:10096000806880831092C1000895833081F028F45C
:10097000813099F08230A1F008958730A9F0883055
:10098000B9F08430D1F4809180008F7D03C08091D4
:1009900080008F7780938000089584B58F7702C0A0
:1009A00084B58F7D84BD08958091B0008F7703C09A
:1009B0008091B0008F7D8093B0000895CF93DF9336
:1009C00090E0FC01E458FF4F2491FC01E057FF4FF9
:1009D0008491882349F190E0880F991FFC01E85425
:1009E000FF4FA591B49182559F4FFC01C591D491C1
:1009F0009FB7611108C0F8948C91209582238C9345
:100A0000888182230AC0623051F4F8948C91322F8D
:100A1000309583238C938881822B888304C0F8943B
:100A20008C91822B8C939FBFDF91CF9108950F9370
:100A30001F93CF93DF931F92CDB7DEB7282F30E0FF
:100A4000F901E859FF4F8491F901E458FF4F1491DF
:100A5000F901E057FF4F04910023C9F0882321F0EA
:100A600069830E94B5046981E02FF0E0EE0FFF1F5B
:100A7000E255FF4FA591B4919FB7F8948C91611105
:100A800003C01095812301C0812B8C939FBF0F90D1
:100A9000DF91CF911F910F910895FC01818D228DDF
:100AA00090E0805C9F4F821B91098F739927089576
:100AB000FC01918D828D981731F0828DE80FF11D28
:100AC000858D90E008958FEF9FEF0895FC01918D43
:100AD000828D981761F0828DDF01A80FB11D5D96A0
:100AE0008C91928D9F5F9F73928F90E008958FEF0E
:100AF0009FEF08958AEE96E0892B49F080E090E020
:100B0000892B29F00E94EA0681110C9400000895B7
:100B1000FC01848DDF01A80FB11DA35ABF4F2C919A
:100B2000848D90E001968F739927848FA689B78969
:100B30002C93A089B1898C9180648C93938D848D42
:100B4000981306C00288F389E02D80818F7D808311
:100B50000895CF93DF93EC01888D8823C9F0EA894B
:100B6000FB89808185FD05C0A889B9898C9186FDA6
:100B70000FC00FB607FCF5CF808185FFF2CFA889A3
:100B8000B9898C9185FFEDCFCE010E948805E7CF12
:100B9000DF91CF910895CF92DF92FF920F931F9331
:100BA000CF93DF931F92CDB7DEB76C0181E0D60102
:100BB00058968C9358975B969C915B975C968C911A
:100BC0005C97981307C05096ED91FC9151978081E6
:100BD00085FD2EC0F601038D10E00F5F1F4F0F73D0
:100BE0001127F02EF601848DF81211C00FB607FC04
:100BF000F9CFD6015096ED91FC915197808185FFF8
:100C0000F1CFC60169830E9488056981EBCF838D8E
:100C1000E80FF11DE35AFF4F6083D6015B960C93FA
:100C20005B975296ED91FC915397808180620CC046
:100C3000D6015696ED91FC91579760835096ED91B1
:100C4000FC91519780818064808381E090E00F90D7
:100C5000DF91CF911F910F91FF90DF90CF9008957A
:100C6000BF92CF92DF92EF92FF92CF93DF93EC018E
:100C70006A017B01B22EE889F98982E080834115FF
:100C800081EE580761057105A1F060E079E08DE320
:100C900090E0A70196010E94480B215031094109BB
:100CA00051095695479537952795211580E13807C5
:100CB00098F0E889F989108260E874E88EE190E0A4
:100CC000A70196010E94480B2150310941095109A1
:100CD0005695479537952795EC85FD853083EE85AC
:100CE000FF852083188EEC89FD89B082EA89FB8913
:100CF000808180618083EA89FB898081886080832C
:100D0000EA89FB89808180688083EA89FB89808108
:100D10008F7D8083DF91CF91FF90EF90DF90CF9018
:100D2000BF9008951F920F920FB60F9211242F9328
:100D30008F939F93EF93FF93E0913102F0913202F2
:100D40008081E0913702F091380282FD12C09081DB
:100D500080913A028F5F8F7320913B02821751F08E
:100D6000E0913A02F0E0EF5DFD4F958F80933A02FB
:100D700001C08081FF91EF919F918F912F910F90F2
:100D80000FBE0F901F9018951F920F920FB60F92E3
:100D900011242F933F934F935F936F937F938F9380
:100DA0009F93AF93BF93EF93FF9381E292E00E94F2
:100DB0008805FF91EF91BF91AF919F918F917F91A6
:100DC0006F915F914F913F912F910F900FBE0F90B8
:100DD0001F90189581E292E00E944D0521E0892B39
:100DE00009F420E0822F0895109224021092230229
:100DF00088EE93E0A0E0B0E0809325029093260275
:100E0000A0932702B093280284EA91E090932202F3
:100E10008093210285EC90E090932E0280932D0226
:100E200084EC90E09093300280932F0280EC90E06D
:100E3000909332028093310281EC90E090933402DF
:100E40008093330282EC90E09093360280933502D7
:100E500086EC90E0909338028093370210923A0229
:100E600010923B0210923C0210923D0208950895A8
:100E70000E947A040E9437070E946701CAE7D5E002
:100E80000E949C012097E1F30E947A05F9CFCF924E
:100E9000DF92EF92FF920F931F93CF93DF937C012A
:100EA0006A01EB0100E010E00C151D0571F069917D
:100EB000D701ED91FC910190F081E02DC7010995DA
:100EC000892B19F00F5F1F4FEFCFC801DF91CF9132
:100ED0001F910F91FF90EF90DF90CF9008956115D3
:100EE000710581F0DB010D900020E9F7AD01415063
:100EF0005109461B570BDC01ED91FC910280F381F7
:100F0000E02D099480E090E008950C946F07DC01D7
:100F1000ED91FC910190F081E02D09948F929F92C8
:100F2000AF92BF92DF92EF92FF920F931F93CF93F6
:100F3000DF93CDB7DEB7A1970FB6F894DEBF0FBE33
:100F4000CDBF7C01F42FD52ECB0119A2223008F49D
:100F50002AE08E010F5D1F4F822E912CA12CB12C07
:100F60006F2F7D2DA50194010E94480BF22FD32EE7
:100F7000CA01015011096A3014F4E0E301C0E7E34B
:100F8000E60FD801EC93232B242B252B49F7B8012E
:100F9000C7010E946F07A1960FB6F894DEBF0FBE7F
:100FA000CDBFDF91CF911F910F91FF90EF90DF9018
:100FB000BF90AF909F908F900895CF92DF92EF9265
:100FC000FF920F931F93CF93DF93EC016A017B0194
:100FD0002115310579F4E881F9810190F081E02D46
:100FE000642FDF91CF911F910F91FF90EF90DF90D1
:100FF000CF9009942A303105E9F477FF1AC06DE2E9
:101000000E9487078C0144275527BA014C195D09B6
:101010006E097F092AE0CE010E948E07800F911F82
:10102000DF91CF911F910F91FF90EF90DF90CF90C4
:1010300008952AE0B701A601CE01DF91CF911F915B
:101040000F91FF90EF90DF90CF900C948E072115B9
:10105000310541F4DC01ED91FC910190F081E02D2E
:10106000642F09940C948E079A01462F50E060E09B
:1010700070E00C9427084F925F926F927F928F924C
:101080009F92AF92BF92CF92DF92EF92FF920F9317
:101090001F93CF93DF93EC016A017B01B22E9A017B
:1010A000AB01C701B6010E94440B882319F060EB25
:1010B00071E027C026013701E89477F82FEF3FEF62
:1010C0004FE75FE7C301B2010E94440B81110DC0DD
:1010D0002FEF3FEF4FE75FE7C301B2010E948E0998
:1010E00018161CF464EB71E00CC02FEF3FEF4FE7D4
:1010F0005FE4C701B6010E94DD0A1816ACF468EB84
:1011000071E0CE01DF91CF911F910F91FF90EF9091
:10111000DF90CF90BF90AF909F908F907F906F9017
:101120005F904F900C946F072FEF3FEF4FE75FEC0E
:10113000C701B6010E948E0987FDE1CF20E030E0B3
:10114000A901C701B6010E948E0987FF0AC06DE29E
:10115000CE010E9487078C01F7FAF094F7F8F0941B
:1011600002C000E010E0A12C60E070E080E09FE3AE
:10117000AB1441F020E030E040E251E40E949209DB
:10118000A394F6CF9B01AC01C701B6010E942A09C6
:101190006B017C010E94FF092B013C010E942B0A7C
:1011A0009B01AC01C701B6010E9429096B017C01BA
:1011B0002AE0B301A201CE010E948E07080F191F79
:1011C000BB2039F06CEB71E0CE010E946F07080F75
:1011D000191F7B2C772041F120E030E040E251E400
:1011E000C701B6010E94E10A6B017C010E94FA0965
:1011F0004B01AA2497FCA094BA2C2AE030E0B50158
:10120000A401CE010E94DD07080F191FC501B4011A
:101210000E942D0A9B01AC01C701B6010E94290959
:101220006B017C017A94D6CFC801DF91CF911F91D9
:101230000F91FF90EF90DF90CF90BF90AF909F9075
:101240008F907F906F905F904F9008950C943B0823
:1012500008955058BB27AA270ED075C166D130F02B
:101260006BD120F031F49F3F11F41EF45BC10EF4FA
:10127000E095E7FB51C1E92F77D180F3BA176207F8
:1012800073078407950718F071F49EF58FC10EF46B
:10129000E0950B2EBA2FA02D0B01B90190010C0186
:1012A000CA01A0011124FF27591B99F0593F50F49E
:1012B000503E68F11A16F040A22F232F342F4427F6
:1012C000585FF3CF469537952795A795F0405395EE
:1012D000C9F77EF41F16BA0B620B730B840BBAF0BE
:1012E0009150A1F0FF0FBB1F661F771F881FC2F729
:1012F0000EC0BA0F621F731F841F48F4879577953D
:101300006795B795F7959E3F08F0B3CF9395880FF3
:1013100008F09927EE0F979587950895D9D008F48E
:1013200081E008950CD00FC107D140F0FED030F01D
:1013300021F45F3F19F0F0C0511139C1F3C014D14D
:1013400098F39923C9F35523B1F3951B550BBB278C
:10135000AA2762177307840738F09F5F5F4F220F39
:10136000331F441FAA1FA9F333D00E2E3AF0E0E832
:1013700030D091505040E695001CCAF729D0FE2F7E
:1013800027D0660F771F881FBB1F26173707480710
:10139000AB07B0E809F0BB0B802DBF01FF279358C6
:1013A0005F4F2AF09E3F510568F0B6C000C15F3F15
:1013B000ECF3983EDCF3869577956795B795F795AE
:1013C0009F5FC9F7880F911D9695879597F90895A6
:1013D000E1E0660F771F881FBB1F62177307840742
:1013E000BA0720F0621B730B840BBA0BEE1F88F751
:1013F000E095089504D06894B111D9C00895BCD087
:1014000088F09F5790F0B92F9927B751A0F0D1F0ED
:10141000660F771F881F991F1AF0BA95C9F712C077
:10142000B13081F0C3D0B1E00895C0C0672F782FEC
:101430008827B85F39F0B93FCCF3869577956795E3
:10144000B395D9F73EF490958095709561957F4F4F
:101450008F4F9F4F0895E89409C097FB3EF49095F5
:101460008095709561957F4F8F4F9F4F9923A9F07D
:10147000F92F96E9BB279395F6958795779567950C
:10148000B795F111F8CFFAF4BB0F11F460FF1BC050
:101490006F5F7F4F8F4F9F4F16C0882311F096E9E3
:1014A00011C0772321F09EE8872F762F05C0662391
:1014B00071F096E8862F70E060E02AF09A95660F4A
:1014C000771F881FDAF7880F9695879597F9089503
:1014D000990F0008550FAA0BE0E8FEEF1616170645
:1014E000E807F907C0F012161306E407F50798F0AD
:1014F000621B730B840B950B39F40A2661F0232BC6
:10150000242B252B21F408950A2609F4A140A69541
:101510008FEF811D811D089597F99F6780E870E026
:1015200060E008959FEF80EC089500240A94161659
:10153000170618060906089500240A9412161306C1
:10154000140605060895092E0394000C11F488234F
:1015500052F0BB0F40F4BF2B11F460FF04C06F5F6B
:101560007F4F8F4F9F4F089557FD9058440F551F41
:1015700059F05F3F71F04795880F97FB991F61F015
:101580009F3F79F087950895121613061406551F8C
:10159000F2CF4695F1DF08C0161617061806991FF8
:1015A000F1CF86957105610508940895E894BB27ED
:1015B00066277727CB0197F908958ADF08F48FEF24
:1015C00008950BD0C0CFB1DF28F0B6DF18F0952317
:1015D00009F0A2CFA7CF1124EACFC6DFA0F3959FD1
:1015E000D1F3950F50E0551F629FF001729FBB270A
:1015F000F00DB11D639FAA27F00DB11DAA1F649FB6
:101600006627B00DA11D661F829F2227B00DA11D68
:10161000621F739FB00DA11D621F839FA00D611DEE
:10162000221F749F3327A00D611D231F849F600D0F
:10163000211D822F762F6A2F11249F5750408AF048
:10164000E1F088234AF0EE0FFF1FBB1F661F771FD4
:10165000881F91505040A9F79E3F510570F05CCF14
:10166000A6CF5F3FECF3983EDCF3869577956795C0
:10167000B795F795E7959F5FC1F7FE2B880F911DF2
:101680009695879597F9089523DF880B990B089510
:10169000A1E21A2EAA1BBB1BFD010DC0AA1FBB1F76
:1016A000EE1FFF1FA217B307E407F50720F0A21BE8
:1016B000B30BE40BF50B661F771F881F991F1A9455
:1016C00069F760957095809590959B01AC01BD017F
:1016D000CF010895EE0FFF1F0590F491E02D0994BE
:0416E000F894FFCFAC
:1016E4000000BE0280000D00010000003000564DD5
:1016F4004450455F31007C005F564D4450450D0A0F
:1017040000564D4450565F317C315F564D4450561F
:101714000D0A00202020202020202020202020200E
:101724002020202020202000564D4450435F005F9D
:10173400564D4450430D0A004572726F723A20416F
:101744007474656D707420746F20736574206120E7
:10175400726561642D6F6E6C792076617269616265
:101764006C65206F722064617461207479706520E7
:101774006E6F7420737570706F727465640D0A00F7
:1017840000000000CB0547074D0566055805A9056F
:0E1794006E616E00696E66006F7666002E0054
:00000001FF
